{
  "contractName": "AnonymousIdentityRegistry",
  "abi": [
    {
      "inputs": [],
      "payable": false,
      "stateMutability": "nonpayable",
      "type": "constructor",
      "signature": "constructor"
    },
    {
      "anonymous": false,
      "inputs": [
        {
          "indexed": false,
          "name": "listId",
          "type": "string"
        }
      ],
      "name": "ListCreated",
      "type": "event",
      "signature": "0x3a034d392c7b1e79de586c80fa30fbf79ffb34beab74f35d75ae500ec4110138"
    },
    {
      "anonymous": false,
      "inputs": [
        {
          "indexed": false,
          "name": "listId",
          "type": "string"
        },
        {
          "indexed": false,
          "name": "anonymousId",
          "type": "address"
        }
      ],
      "name": "ListItemAdded",
      "type": "event",
      "signature": "0x67349a4785d1793181c7dd5d611819aadff7848d5f3aeeb703d255d90358441d"
    },
    {
      "anonymous": false,
      "inputs": [
        {
          "indexed": false,
          "name": "listId",
          "type": "string"
        }
      ],
      "name": "ListFilled",
      "type": "event",
      "signature": "0xb1eeea7bdae9c106610c7c46904328260fc013862448f4b4498f9273e15be68a"
    },
    {
      "constant": false,
      "inputs": [
        {
          "name": "_listId",
          "type": "string"
        },
        {
          "name": "_pkeys",
          "type": "uint256[20]"
        }
      ],
      "name": "createList",
      "outputs": [],
      "payable": false,
      "stateMutability": "nonpayable",
      "type": "function",
      "signature": "0x7541bd4d"
    },
    {
      "constant": false,
      "inputs": [
        {
          "name": "_listId",
          "type": "string"
        },
        {
          "name": "_anonymousId",
          "type": "address"
        },
        {
          "name": "_tag",
          "type": "uint256[2]"
        },
        {
          "name": "_tees",
          "type": "uint256[10]"
        },
        {
          "name": "_seed",
          "type": "uint256"
        }
      ],
      "name": "addToList",
      "outputs": [
        {
          "name": "success",
          "type": "bool"
        }
      ],
      "payable": false,
      "stateMutability": "nonpayable",
      "type": "function",
      "signature": "0xb633aa89"
    },
    {
      "constant": true,
      "inputs": [
        {
          "name": "_listId",
          "type": "string"
        }
      ],
      "name": "getList",
      "outputs": [
        {
          "name": "",
          "type": "address[]"
        }
      ],
      "payable": false,
      "stateMutability": "view",
      "type": "function",
      "signature": "0x487daf02"
    }
  ],
  "bytecode": "0x608060405234801561001057600080fd5b5033600560006101000a81548173ffffffffffffffffffffffffffffffffffffffff021916908373ffffffffffffffffffffffffffffffffffffffff160217905550611161806100616000396000f300608060405260043610610057576000357c0100000000000000000000000000000000000000000000000000000000900463ffffffff168063487daf021461005c5780637541bd4d1461011a578063b633aa89146101b3575b600080fd5b34801561006857600080fd5b506100c3600480360381019080803590602001908201803590602001908080601f01602080910402602001604051908101604052809392919081815260200183838082843782019150505050505091929192905050506102bd565b6040518080602001828103825283818151815260200191508051906020019060200280838360005b838110156101065780820151818401526020810190506100eb565b505050509050019250505060405180910390f35b34801561012657600080fd5b506101b1600480360381019080803590602001908201803590602001908080601f01602080910402602001604051908101604052809392919081815260200183838082843782019150505050505091929192908061028001906014806020026040519081016040528092919082601460200280828437820191505050505091929192905050506103b6565b005b3480156101bf57600080fd5b506102a3600480360381019080803590602001908201803590602001908080601f0160208091040260200160405190810160405280939291908181526020018383808284378201915050505050509192919290803573ffffffffffffffffffffffffffffffffffffffff1690602001909291908060400190600280602002604051908101604052809291908260026020028082843782019150505050509192919290806101400190600a806020026040519081016040528092919082600a60200280828437820191505050505091929192908035906020019092919050505061070e565b604051808215151515815260200191505060405180910390f35b60606003826040518082805190602001908083835b6020831015156102f757805182526020820191506020810190506020830392506102d2565b6001836020036101000a03801982511681845116808217855250505050505090500191505090815260200160405180910390208054806020026020016040519081016040528092919081815260200182805480156103aa57602002820191906000526020600020905b8160009054906101000a900473ffffffffffffffffffffffffffffffffffffffff1673ffffffffffffffffffffffffffffffffffffffff1681526020019060010190808311610360575b50505050509050919050565b3373ffffffffffffffffffffffffffffffffffffffff16600560009054906101000a900473ffffffffffffffffffffffffffffffffffffffff1673ffffffffffffffffffffffffffffffffffffffff1614151561047b576040517f08c379a00000000000000000000000000000000000000000000000000000000081526004018080602001828103825260168152602001807f556e617574686f72697a6564206f7065726174696f6e0000000000000000000081525060200191505060405180910390fd5b600015156000836040518082805190602001908083835b6020831015156104b75780518252602082019150602081019050602083039250610492565b6001836020036101000a038019825116818451168082178552505050505050905001915050908152602001604051809103902060009054906101000a900460ff16151514151561056f576040517f08c379a00000000000000000000000000000000000000000000000000000000081526004018080602001828103825260138152602001807f4c69737420616c7265616479206578697374730000000000000000000000000081525060200191505060405180910390fd5b60016000836040518082805190602001908083835b6020831015156105a95780518252602082019150602081019050602083039250610584565b6001836020036101000a038019825116818451168082178552505050505050905001915050908152602001604051809103902060006101000a81548160ff021916908315150217905550806001836040518082805190602001908083835b60208310151561062c5780518252602082019150602081019050602083039250610607565b6001836020036101000a038019825116818451168082178552505050505050905001915050908152602001604051809103902090601461066d9291906110d0565b507f3a034d392c7b1e79de586c80fa30fbf79ffb34beab74f35d75ae500ec4110138826040518080602001828103825283818151815260200191508051906020019080838360005b838110156106d05780820151818401526020810190506106b5565b50505050905090810190601f1680156106fd5780820380516001836020036101000a031916815260200191505b509250505060405180910390a15050565b600060606000600115156000896040518082805190602001908083835b602083101515610750578051825260208201915060208101905060208303925061072b565b6001836020036101000a038019825116818451168082178552505050505050905001915050908152602001604051809103902060009054906101000a900460ff161515141515610808576040517f08c379a00000000000000000000000000000000000000000000000000000000081526004018080602001828103825260138152602001807f4c69737420646f6573206e6f742065786973740000000000000000000000000081525060200191505060405180910390fd5b73__UAOSRing______________________________634dbaecb160018a6040518082805190602001908083835b60208310151561085a5780518252602082019150602081019050602083039250610835565b6001836020036101000a038019825116818451168082178552505050505050905001915050908152602001604051809103902088888860028e6040518082805190602001908083835b6020831015156108c857805182526020820191506020810190506020830392506108a3565b6001836020036101000a0380198251168184511680821785525050505050509050019150506020604051808303816000865af115801561090c573d6000803e3d6000fd5b5050506040513d602081101561092157600080fd5b8101908080519060200190929190505050600190046040518663ffffffff167c0100000000000000000000000000000000000000000000000000000000028152600401808660148015610989576020028201915b815481526020019060010190808311610975575b505085600260200280838360005b838110156109b2578082015181840152602081019050610997565b5050505090500184600a60200280838360005b838110156109e05780820151818401526020810190506109c5565b505050509050018381526020018281526020019550505050505060206040518083038186803b158015610a1257600080fd5b505af4158015610a26573d6000803e3d6000fd5b505050506040513d6020811015610a3c57600080fd5b81019080805190602001909291905050501515610ac1576040517f08c379a00000000000000000000000000000000000000000000000000000000081526004018080602001828103825260118152602001807f496e76616c6964207369676e617475726500000000000000000000000000000081525060200191505060405180910390fd5b60001515600460008973ffffffffffffffffffffffffffffffffffffffff1673ffffffffffffffffffffffffffffffffffffffff16815260200190815260200160002060009054906101000a900460ff161515141515610b89576040517f08c379a000000000000000000000000000000000000000000000000000000000815260040180806020018281038252601f8152602001807f4964656e746974792068617320616c7265616479206265656e2061646465640081525060200191505060405180910390fd5b856040516020018082600260200280838360005b83811015610bb8578082015181840152602081019050610b9d565b505050509050019150506040516020818303038152906040529150600015156002896040518082805190602001908083835b602083101515610c0f5780518252602082019150602081019050602083039250610bea565b6001836020036101000a0380198251168184511680821785525050505050509050019150509081526020016040518091039020836040518082805190602001908083835b602083101515610c785780518252602082019150602081019050602083039250610c53565b6001836020036101000a038019825116818451168082178552505050505050905001915050908152602001604051809103902060009054906101000a900460ff161515141515610d30576040517f08c379a00000000000000000000000000000000000000000000000000000000081526004018080602001828103825260138152602001807f4475706c6963617465207369676e61747572650000000000000000000000000081525060200191505060405180910390fd5b60016002896040518082805190602001908083835b602083101515610d6a5780518252602082019150602081019050602083039250610d45565b6001836020036101000a0380198251168184511680821785525050505050509050019150509081526020016040518091039020836040518082805190602001908083835b602083101515610dd35780518252602082019150602081019050602083039250610dae565b6001836020036101000a038019825116818451168082178552505050505050905001915050908152602001604051809103902060006101000a81548160ff0219169083151502179055506003886040518082805190602001908083835b602083101515610e555780518252602082019150602081019050602083039250610e30565b6001836020036101000a03801982511681845116808217855250505050505090500191505090815260200160405180910390209050808790806001815401808255809150509060018203906000526020600020016000909192909190916101000a81548173ffffffffffffffffffffffffffffffffffffffff021916908373ffffffffffffffffffffffffffffffffffffffff160217905550506001600460008973ffffffffffffffffffffffffffffffffffffffff1673ffffffffffffffffffffffffffffffffffffffff16815260200190815260200160002060006101000a81548160ff0219169083151502179055507f67349a4785d1793181c7dd5d611819aadff7848d5f3aeeb703d255d90358441d888860405180806020018373ffffffffffffffffffffffffffffffffffffffff1673ffffffffffffffffffffffffffffffffffffffff168152602001828103825284818151815260200191508051906020019080838360005b83811015610fdc578082015181840152602081019050610fc1565b50505050905090810190601f1680156110095780820380516001836020036101000a031916815260200191505b50935050505060405180910390a1600a818054905014156110c1577fb1eeea7bdae9c106610c7c46904328260fc013862448f4b4498f9273e15be68a886040518080602001828103825283818151815260200191508051906020019080838360005b8381101561108657808201518184015260208101905061106b565b50505050905090810190601f1680156110b35780820380516001836020036101000a031916815260200191505b509250505060405180910390a15b60019250505095945050505050565b82601481019282156110ff579160200282015b828111156110fe5782518255916020019190600101906110e3565b5b50905061110c9190611110565b5090565b61113291905b8082111561112e576000816000905550600101611116565b5090565b905600a165627a7a72305820736e971f760ee57af1887bc831cdc2cf109f0863840cdd91573504f0ea84f1460029",
  "source": "pragma solidity ^0.4.24;\n\nimport './UAOSRing.sol';\n\ncontract AnonymousIdentityRegistry {\n  /// mapping of all list ids\n  mapping(string => bool) listIds;\n\n  /// mapping of list ids to public keys\n  mapping(string => uint256[20]) listIdToPubKeys;\n\n  /// mapping of list ids to ring signature tags\n  mapping(string => mapping(bytes => bool)) listIdToTags;\n\n  /// mapping of list ids to anonymous identities\n  mapping(string => address[]) listIdToAnonymousIds;\n\n  /// mapping of all anonymous identities\n  mapping(address => bool) anonmyousIdentitiesMap;\n\n  /// owner of this registry\n  address owner;\n\n  event ListCreated(string listId);\n  event ListItemAdded(string listId, address anonymousId);\n  event ListFilled(string listId);\n\n  constructor() public {\n    owner = msg.sender;\n  }\n\n  modifier onlyOwner() {\n    require(owner == msg.sender, 'Unauthorized operation');\n    _;\n  }\n\n  /**\n   * @dev creates a new list of anonymous identities. \n   *  Only avaialble to contract owner.\n   * @param _listId unique id for the list\n   * @param _pkeys authorized public keys for contributing to the list\n   */\n  function createList(string _listId, uint256[20] _pkeys) public onlyOwner {\n    require(listIds[_listId] == false, 'List already exists');\n    listIds[_listId] = true;\n    listIdToPubKeys[_listId] = _pkeys;\n    emit ListCreated(_listId);\n  }\n\n  /**\n   * @dev adds a new anonymous identity to a list. \n   *  An unique and valid linkable ring signature must be provided.\n   * @param _listId list id to add to.\n   * @param _anonymousId entry to add to list.\n   * @param _tag tag for testing linkability. Must be unique for the same listId to prevent double entry.\n   * @param _tees part of the ring signature, needs further documentation.\n   * @param _seed part of the ring signature, needs further documentation.\n   */\n  function addToList(\n      string _listId, \n      address _anonymousId,\n      uint256[2] _tag,\n      uint256[10] _tees,\n      uint256 _seed\n    ) public returns (bool success) {\n    require(listIds[_listId] == true, 'List does not exist');\n\n    // verify ring signature\n    require(UAOSRing.verify(\n      listIdToPubKeys[_listId],\n      _tag,\n      _tees,\n      _seed,\n      uint256(sha256(_listId))\n    ), 'Invalid signature');\n\n    // check for duplicate identities\n    require(anonmyousIdentitiesMap[_anonymousId] == false, 'Identity has already been added');\n\n    // verify tag uniqueness\n    bytes memory tagBytes = abi.encodePacked(_tag);\n    require(listIdToTags[_listId][tagBytes] == false, \"Duplicate signature\");\n    listIdToTags[_listId][tagBytes] = true;\n\n    // add entry to list\n    address[] storage anonymousIds = listIdToAnonymousIds[_listId];\n    anonymousIds.push(_anonymousId);\n    anonmyousIdentitiesMap[_anonymousId] = true;\n\n    emit ListItemAdded(_listId, _anonymousId);\n\n    if (anonymousIds.length == 10) {\n      emit ListFilled(_listId);\n    }\n    \n    return true;\n  }\n\n  /**\n   * @dev returns all entries of a given list.\n   * @param _listId list id to query.\n   */\n  function getList(string _listId) public view returns (address[]) {\n    return listIdToAnonymousIds[_listId];\n  }\n}\n",
  "sourcePath": "/Users/jimmychen/Workspace/fern-anonymous-identity-registry-poc/truffle/contracts/AnonymousIdentityRegistry.sol",
  "compiler": {
    "name": "solc",
    "version": "0.4.24+commit.e67f0147.Emscripten.clang"
  },
  "schemaVersion": "2.0.1",
  "updatedAt": "2018-09-14T13:59:05.739Z"
}