{
  "contractName": "AnonymousIdentityRegistry",
  "abi": [
    {
      "inputs": [],
      "payable": false,
      "stateMutability": "nonpayable",
      "type": "constructor"
    },
    {
      "anonymous": false,
      "inputs": [
        {
          "indexed": false,
          "name": "listId",
          "type": "string"
        }
      ],
      "name": "ListCreated",
      "type": "event"
    },
    {
      "anonymous": false,
      "inputs": [
        {
          "indexed": false,
          "name": "listId",
          "type": "string"
        },
        {
          "indexed": false,
          "name": "anonymousId",
          "type": "address"
        }
      ],
      "name": "ListItemAdded",
      "type": "event"
    },
    {
      "anonymous": false,
      "inputs": [
        {
          "indexed": false,
          "name": "listId",
          "type": "string"
        }
      ],
      "name": "ListFilled",
      "type": "event"
    },
    {
      "constant": false,
      "inputs": [
        {
          "name": "_listId",
          "type": "string"
        },
        {
          "name": "_pkeys",
          "type": "uint256[20]"
        }
      ],
      "name": "createList",
      "outputs": [],
      "payable": false,
      "stateMutability": "nonpayable",
      "type": "function"
    },
    {
      "constant": false,
      "inputs": [
        {
          "name": "_listId",
          "type": "string"
        },
        {
          "name": "_commitHash",
          "type": "bytes32"
        }
      ],
      "name": "commitToList",
      "outputs": [],
      "payable": false,
      "stateMutability": "nonpayable",
      "type": "function"
    },
    {
      "constant": false,
      "inputs": [
        {
          "name": "_listId",
          "type": "string"
        },
        {
          "name": "_anonymousId",
          "type": "address"
        },
        {
          "name": "_tag",
          "type": "uint256[2]"
        },
        {
          "name": "_tees",
          "type": "uint256[10]"
        },
        {
          "name": "_seed",
          "type": "uint256"
        }
      ],
      "name": "addToList",
      "outputs": [
        {
          "name": "success",
          "type": "bool"
        }
      ],
      "payable": false,
      "stateMutability": "nonpayable",
      "type": "function"
    },
    {
      "constant": true,
      "inputs": [
        {
          "name": "_listId",
          "type": "string"
        }
      ],
      "name": "getList",
      "outputs": [
        {
          "name": "",
          "type": "address[]"
        }
      ],
      "payable": false,
      "stateMutability": "view",
      "type": "function"
    }
  ],
  "bytecode": "0x608060405234801561001057600080fd5b5033600660006101000a81548173ffffffffffffffffffffffffffffffffffffffff021916908373ffffffffffffffffffffffffffffffffffffffff160217905550611576806100616000396000f300608060405260043610610062576000357c0100000000000000000000000000000000000000000000000000000000900463ffffffff16806334f5b00a14610067578063487daf02146100de5780637541bd4d1461019c578063b633aa8914610235575b600080fd5b34801561007357600080fd5b506100dc600480360381019080803590602001908201803590602001908080601f0160208091040260200160405190810160405280939291908181526020018383808284378201915050505050509192919290803560001916906020019092919050505061033f565b005b3480156100ea57600080fd5b50610145600480360381019080803590602001908201803590602001908080601f01602080910402602001604051908101604052809392919081815260200183838082843782019150505050505091929192905050506104d4565b6040518080602001828103825283818151815260200191508051906020019060200280838360005b8381101561018857808201518184015260208101905061016d565b505050509050019250505060405180910390f35b3480156101a857600080fd5b50610233600480360381019080803590602001908201803590602001908080601f01602080910402602001604051908101604052809392919081815260200183838082843782019150505050505091929192908061028001906014806020026040519081016040528092919082601460200280828437820191505050505091929192905050506105cd565b005b34801561024157600080fd5b50610325600480360381019080803590602001908201803590602001908080601f0160208091040260200160405190810160405280939291908181526020018383808284378201915050505050509192919290803573ffffffffffffffffffffffffffffffffffffffff1690602001909291908060400190600280602002604051908101604052809291908260026020028082843782019150505050509192919290806101400190600a806020026040519081016040528092919082600a602002808284378201915050505050919291929080359060200190929190505050610925565b604051808215151515815260200191505060405180910390f35b600115156000836040518082805190602001908083835b60208310151561037b5780518252602082019150602081019050602083039250610356565b6001836020036101000a038019825116818451168082178552505050505050905001915050908152602001604051809103902060009054906101000a900460ff161515141515610433576040517f08c379a00000000000000000000000000000000000000000000000000000000081526004018080602001828103825260138152602001807f4c69737420646f6573206e6f742065786973740000000000000000000000000081525060200191505060405180910390fd5b60016003836040518082805190602001908083835b60208310151561046d5780518252602082019150602081019050602083039250610448565b6001836020036101000a03801982511681845116808217855250505050505090500191505090815260200160405180910390206000836000191660001916815260200190815260200160002060006101000a81548160ff0219169083151502179055505050565b60606004826040518082805190602001908083835b60208310151561050e57805182526020820191506020810190506020830392506104e9565b6001836020036101000a03801982511681845116808217855250505050505090500191505090815260200160405180910390208054806020026020016040519081016040528092919081815260200182805480156105c157602002820191906000526020600020905b8160009054906101000a900473ffffffffffffffffffffffffffffffffffffffff1673ffffffffffffffffffffffffffffffffffffffff1681526020019060010190808311610577575b50505050509050919050565b3373ffffffffffffffffffffffffffffffffffffffff16600660009054906101000a900473ffffffffffffffffffffffffffffffffffffffff1673ffffffffffffffffffffffffffffffffffffffff16141515610692576040517f08c379a00000000000000000000000000000000000000000000000000000000081526004018080602001828103825260168152602001807f556e617574686f72697a6564206f7065726174696f6e0000000000000000000081525060200191505060405180910390fd5b600015156000836040518082805190602001908083835b6020831015156106ce57805182526020820191506020810190506020830392506106a9565b6001836020036101000a038019825116818451168082178552505050505050905001915050908152602001604051809103902060009054906101000a900460ff161515141515610786576040517f08c379a00000000000000000000000000000000000000000000000000000000081526004018080602001828103825260138152602001807f4c69737420616c7265616479206578697374730000000000000000000000000081525060200191505060405180910390fd5b60016000836040518082805190602001908083835b6020831015156107c0578051825260208201915060208101905060208303925061079b565b6001836020036101000a038019825116818451168082178552505050505050905001915050908152602001604051809103902060006101000a81548160ff021916908315150217905550806001836040518082805190602001908083835b602083101515610843578051825260208201915060208101905060208303925061081e565b6001836020036101000a03801982511681845116808217855250505050505090500191505090815260200160405180910390209060146108849291906114e5565b507f3a034d392c7b1e79de586c80fa30fbf79ffb34beab74f35d75ae500ec4110138826040518080602001828103825283818151815260200191508051906020019080838360005b838110156108e75780820151818401526020810190506108cc565b50505050905090810190601f1680156109145780820380516001836020036101000a031916815260200191505b509250505060405180910390a15050565b600080606060006001151560008a6040518082805190602001908083835b6020831015156109685780518252602082019150602081019050602083039250610943565b6001836020036101000a038019825116818451168082178552505050505050905001915050908152602001604051809103902060009054906101000a900460ff161515141515610a20576040517f08c379a00000000000000000000000000000000000000000000000000000000081526004018080602001828103825260138152602001807f4c69737420646f6573206e6f742065786973740000000000000000000000000081525060200191505060405180910390fd5b73__UAOSRing______________________________634dbaecb160018b6040518082805190602001908083835b602083101515610a725780518252602082019150602081019050602083039250610a4d565b6001836020036101000a038019825116818451168082178552505050505050905001915050908152602001604051809103902089898960028f6040518082805190602001908083835b602083101515610ae05780518252602082019150602081019050602083039250610abb565b6001836020036101000a0380198251168184511680821785525050505050509050019150506020604051808303816000865af1158015610b24573d6000803e3d6000fd5b5050506040513d6020811015610b3957600080fd5b8101908080519060200190929190505050600190046040518663ffffffff167c0100000000000000000000000000000000000000000000000000000000028152600401808660148015610ba1576020028201915b815481526020019060010190808311610b8d575b505085600260200280838360005b83811015610bca578082015181840152602081019050610baf565b5050505090500184600a60200280838360005b83811015610bf8578082015181840152602081019050610bdd565b505050509050018381526020018281526020019550505050505060206040518083038186803b158015610c2a57600080fd5b505af4158015610c3e573d6000803e3d6000fd5b505050506040513d6020811015610c5457600080fd5b81019080805190602001909291905050501515610cd9576040517f08c379a00000000000000000000000000000000000000000000000000000000081526004018080602001828103825260118152602001807f496e76616c6964207369676e617475726500000000000000000000000000000081525060200191505060405180910390fd5b60001515600560008a73ffffffffffffffffffffffffffffffffffffffff1673ffffffffffffffffffffffffffffffffffffffff16815260200190815260200160002060009054906101000a900460ff161515141515610da1576040517f08c379a000000000000000000000000000000000000000000000000000000000815260040180806020018281038252601f8152602001807f4964656e746974792068617320616c7265616479206265656e2061646465640081525060200191505060405180910390fd5b86886040516020018083600260200280838360005b83811015610dd1578082015181840152602081019050610db6565b505050509050018273ffffffffffffffffffffffffffffffffffffffff1673ffffffffffffffffffffffffffffffffffffffff166c01000000000000000000000000028152601401925050506040516020818303038152906040526040518082805190602001908083835b602083101515610e615780518252602082019150602081019050602083039250610e3c565b6001836020036101000a038019825116818451168082178552505050505050905001915050604051809103902092506001151560038a6040518082805190602001908083835b602083101515610ecc5780518252602082019150602081019050602083039250610ea7565b6001836020036101000a03801982511681845116808217855250505050505090500191505090815260200160405180910390206000856000191660001916815260200190815260200160002060009054906101000a900460ff161515141515610f9d576040517f08c379a00000000000000000000000000000000000000000000000000000000081526004018080602001828103825260178152602001807f4e6f206d61746368696e6720636f6d6d6974206861736800000000000000000081525060200191505060405180910390fd5b866040516020018082600260200280838360005b83811015610fcc578082015181840152602081019050610fb1565b5050505090500191505060405160208183030381529060405291506000151560028a6040518082805190602001908083835b6020831015156110235780518252602082019150602081019050602083039250610ffe565b6001836020036101000a0380198251168184511680821785525050505050509050019150509081526020016040518091039020836040518082805190602001908083835b60208310151561108c5780518252602082019150602081019050602083039250611067565b6001836020036101000a038019825116818451168082178552505050505050905001915050908152602001604051809103902060009054906101000a900460ff161515141515611144576040517f08c379a00000000000000000000000000000000000000000000000000000000081526004018080602001828103825260138152602001807f4475706c6963617465207369676e61747572650000000000000000000000000081525060200191505060405180910390fd5b600160028a6040518082805190602001908083835b60208310151561117e5780518252602082019150602081019050602083039250611159565b6001836020036101000a0380198251168184511680821785525050505050509050019150509081526020016040518091039020836040518082805190602001908083835b6020831015156111e757805182526020820191506020810190506020830392506111c2565b6001836020036101000a038019825116818451168082178552505050505050905001915050908152602001604051809103902060006101000a81548160ff0219169083151502179055506004896040518082805190602001908083835b6020831015156112695780518252602082019150602081019050602083039250611244565b6001836020036101000a03801982511681845116808217855250505050505090500191505090815260200160405180910390209050808890806001815401808255809150509060018203906000526020600020016000909192909190916101000a81548173ffffffffffffffffffffffffffffffffffffffff021916908373ffffffffffffffffffffffffffffffffffffffff160217905550506001600560008a73ffffffffffffffffffffffffffffffffffffffff1673ffffffffffffffffffffffffffffffffffffffff16815260200190815260200160002060006101000a81548160ff0219169083151502179055507f67349a4785d1793181c7dd5d611819aadff7848d5f3aeeb703d255d90358441d898960405180806020018373ffffffffffffffffffffffffffffffffffffffff1673ffffffffffffffffffffffffffffffffffffffff168152602001828103825284818151815260200191508051906020019080838360005b838110156113f05780820151818401526020810190506113d5565b50505050905090810190601f16801561141d5780820380516001836020036101000a031916815260200191505b50935050505060405180910390a1600a818054905014156114d5577fb1eeea7bdae9c106610c7c46904328260fc013862448f4b4498f9273e15be68a896040518080602001828103825283818151815260200191508051906020019080838360005b8381101561149a57808201518184015260208101905061147f565b50505050905090810190601f1680156114c75780820380516001836020036101000a031916815260200191505b509250505060405180910390a15b6001935050505095945050505050565b8260148101928215611514579160200282015b828111156115135782518255916020019190600101906114f8565b5b5090506115219190611525565b5090565b61154791905b8082111561154357600081600090555060010161152b565b5090565b905600a165627a7a7230582060b72c7e0dad6185a998503177ef676894fcd521e1bf11518179449b2deab1660029",
  "source": "pragma solidity ^0.4.24;\n\nimport './UAOSRing.sol';\n\ncontract AnonymousIdentityRegistry {\n  /// mapping of all list ids\n  mapping(string => bool) listIds;\n\n  /// mapping of list ids to public keys\n  mapping(string => uint256[20]) listIdToPubKeys;\n\n  /// mapping of list ids to ring signature tags\n  mapping(string => mapping(bytes => bool)) listIdToTags;\n\n  /// mapping of list ids to commit hashes\n  mapping(string => mapping(bytes32 => bool)) listIdToCommitHashes;\n\n  /// mapping of list ids to anonymous identities\n  mapping(string => address[]) listIdToAnonymousIds;\n\n  /// mapping of all anonymous identities\n  mapping(address => bool) anonmyousIdentitiesMap;\n\n  /// owner of this registry\n  address owner;\n\n  event ListCreated(string listId);\n  event ListItemAdded(string listId, address anonymousId);\n  event ListFilled(string listId);\n\n  constructor() public {\n    owner = msg.sender;\n  }\n\n  modifier onlyOwner() {\n    require(owner == msg.sender, 'Unauthorized operation');\n    _;\n  }\n\n  /**\n   * @dev creates a new list of anonymous identities. \n   *  Only avaialble to contract owner.\n   * @param _listId unique id for the list\n   * @param _pkeys authorized public keys for contributing to the list\n   */\n  function createList(string _listId, uint256[20] _pkeys) public onlyOwner {\n    require(listIds[_listId] == false, 'List already exists');\n    listIds[_listId] = true;\n    listIdToPubKeys[_listId] = _pkeys;\n    emit ListCreated(_listId);\n  }\n\n  /**\n   * @dev commits a future entry using a hash. Required before an user can add their anonymous address to a list.\n   * This is to prevent others from taking others signatures from the transaction pool and use it to submit an entry.\n   * @param _listId list id to add to.\n   * @param _commitHash solidty sha3 hash of the linkable ring signature tag and anonymousId being added.\n   */\n  function commitToList(string _listId, bytes32 _commitHash) public {\n    // TODO authenticate with regular ring signatures?\n    require(listIds[_listId] == true, 'List does not exist');\n    listIdToCommitHashes[_listId][_commitHash] = true;\n  }\n\n  /**\n   * @dev adds a new anonymous identity to a list. \n   *  An unique and valid linkable ring signature must be provided.\n   * @param _listId list id to add to.\n   * @param _anonymousId entry to add to list.\n   * @param _tag tag for testing linkability. Must be unique for the same listId to prevent double entry.\n   * @param _tees part of the ring signature, needs further documentation.\n   * @param _seed part of the ring signature, needs further documentation.\n   */\n  function addToList(\n      string _listId, \n      address _anonymousId,\n      uint256[2] _tag,\n      uint256[10] _tees,\n      uint256 _seed\n    ) public returns (bool success) {\n    require(listIds[_listId] == true, 'List does not exist');\n\n    // verify ring signature\n    require(UAOSRing.verify(\n      listIdToPubKeys[_listId],\n      _tag,\n      _tees,\n      _seed,\n      uint256(sha256(_listId))\n    ), 'Invalid signature');\n\n    // check for duplicate identities across all lists\n    require(anonmyousIdentitiesMap[_anonymousId] == false, 'Identity has already been added');\n\n    // verify commit hash, to prevent signature being used by others\n    bytes32 commitHash = keccak256(abi.encodePacked(_tag, _anonymousId));\n    require(listIdToCommitHashes[_listId][commitHash] == true, \"No matching commit hash\");\n\n    // verify tag uniqueness, to prevent an user from adding items more than once\n    bytes memory tagBytes = abi.encodePacked(_tag);\n    require(listIdToTags[_listId][tagBytes] == false, \"Duplicate signature\");\n    listIdToTags[_listId][tagBytes] = true;\n\n    // add entry to list\n    address[] storage anonymousIds = listIdToAnonymousIds[_listId];\n    anonymousIds.push(_anonymousId);\n    anonmyousIdentitiesMap[_anonymousId] = true;\n\n    emit ListItemAdded(_listId, _anonymousId);\n\n    if (anonymousIds.length == 10) {\n      emit ListFilled(_listId);\n    }\n    \n    return true;\n  }\n\n  /**\n   * @dev returns all entries of a given list.\n   * @param _listId list id to query.\n   */\n  function getList(string _listId) public view returns (address[]) {\n    return listIdToAnonymousIds[_listId];\n  }\n}\n",
  "sourcePath": "/Users/jimmychen/Workspace/fern-anonymous-identity-registry-poc/truffle/contracts/AnonymousIdentityRegistry.sol",
  "compiler": {
    "name": "solc",
    "version": "0.4.24+commit.e67f0147.Emscripten.clang"
  },
  "schemaVersion": "3.0.0-beta.1",
  "updatedAt": "2018-10-01T12:09:15.688Z"
}