{
  "contractName": "UAOSRing",
  "abi": [
    {
      "constant": true,
      "inputs": [
        {
          "name": "pubkeys",
          "type": "uint256[20]"
        },
        {
          "name": "tag",
          "type": "uint256[2]"
        },
        {
          "name": "tees",
          "type": "uint256[10]"
        },
        {
          "name": "seed",
          "type": "uint256"
        },
        {
          "name": "message",
          "type": "uint256"
        }
      ],
      "name": "verify",
      "outputs": [
        {
          "name": "",
          "type": "bool"
        }
      ],
      "payable": false,
      "stateMutability": "view",
      "type": "function",
      "signature": "0x4dbaecb1"
    }
  ],
  "bytecode": "0x6108ae610030600b82828239805160001a6073146000811461002057610022565bfe5b5030600052607381538281f3007300000000000000000000000000000000000000003014608060405260043610610058576000357c0100000000000000000000000000000000000000000000000000000000900463ffffffff1680634dbaecb11461005d575b600080fd5b6101146004803603810190808061028001906014806020026040519081016040528092919082601460200280828437820191505050505091929192908060400190600280602002604051908101604052809291908260026020028082843782019150505050509192919290806101400190600a806020026040519081016040528092919082600a6020028082843782019150505050509192919290803590602001909291908035906020019092919050505061012e565b604051808215151515815260200191505060405180910390f35b60006101386107dc565b60006101426107dc565b6000806000806002601481151561015557fe5b0614151561016257600080fd5b6000601411151561017257600080fd5b61017b886102dd565b9550856000015186602001518c600060028110151561019657fe5b60200201518d60016002811015156101aa57fe5b602002015160405180858152602001848152602001838152602001828152602001945050505050604051809103902060019004945060408051908101604052808c60006002811015156101f957fe5b602002015181526020018c600160028110151561021257fe5b60200201518152509350889250600091505b6002601481151561023157fe5b048210156102c9576002820290508461029a60408051908101604052808f8560148110151561025c57fe5b602002015181526020018f6001860160148110151561027757fe5b602002015181525088878e87600a8110151561028f57fe5b6020020151886103c6565b604051808381526020018281526020019250505060405180910390206001900492508180600101925050610224565b888314965050505050505095945050505050565b6102e56107dc565b6000806000809250600091507f30644e72e131a029b85045b68181585d2833e84879b9709143e1f593f00000018581151561031c57fe5b0690505b6001156103bd5761033081610482565b80935081945050507f30644e72e131a029b85045b68181585d97816a916871ca8d3c208c16d87cfd4780151561036257fe5b8283098314156103885760408051908101604052808281526020018381525093506103be565b7f30644e72e131a029b85045b68181585d97816a916871ca8d3c208c16d87cfd478015156103b257fe5b600182089050610320565b5b505050919050565b60006103d06107dc565b6103d86107dc565b6103fb6103ec6103e661056a565b8761058e565b6103f68a8761058e565b610628565b915061041961040a888761058e565b610414888761058e565b610628565b90508560000151866020015183600001518460200151846000015185602001516040518087815260200186815260200185815260200184815260200183815260200182815260200196505050505050506040518091039020600190049250505095945050505050565b6000806000807f30644e72e131a029b85045b68181585d97816a916871ca8d3c208c16d87cfd478015156104b257fe5b60037f30644e72e131a029b85045b68181585d97816a916871ca8d3c208c16d87cfd478015156104de57fe5b877f30644e72e131a029b85045b68181585d97816a916871ca8d3c208c16d87cfd4780151561050957fe5b898a090908915061055b827f0c19139cb84c680a6e14116da060561765e05aa45a1c72a34f082305b61f3f527f30644e72e131a029b85045b68181585d97816a916871ca8d3c208c16d87cfd476106e3565b90508181935093505050915091565b6105726107dc565b6040805190810160405280600181526020016002815250905090565b6105966107dc565b61059e6107f6565b600084600001518260006003811015156105b457fe5b60200201818152505084602001518260016003811015156105d157fe5b602002018181525050838260026003811015156105ea57fe5b60200201818152505060608360808460076107d05a03fa9050806000811461061157610613565bfe5b5080151561062057600080fd5b505092915050565b6106306107dc565b610638610819565b6000846000015182600060048110151561064e57fe5b602002018181525050846020015182600160048110151561066b57fe5b602002018181525050836000015182600260048110151561068857fe5b60200201818152505083602001518260036004811015156106a557fe5b60200201818152505060608360c08460066107d05a03fa905080600081146106cc576106ce565bfe5b508015156106db57600080fd5b505092915050565b6000806106ee61083c565b6106f661085f565b602081600060068110151561070757fe5b602002018181525050602081600160068110151561072157fe5b602002018181525050602081600260068110151561073b57fe5b6020020181815250508681600360068110151561075457fe5b6020020181815250508581600460068110151561076d57fe5b6020020181815250508481600560068110151561078657fe5b60200201818152505060208260c08360056107d05a03fa925082600081146107ad576107af565bfe5b508215156107bc57600080fd5b8160006001811015156107cb57fe5b602002015193505050509392505050565b604080519081016040528060008152602001600081525090565b606060405190810160405280600390602082028038833980820191505090505090565b608060405190810160405280600490602082028038833980820191505090505090565b602060405190810160405280600190602082028038833980820191505090505090565b60c0604051908101604052806006906020820280388339808201915050905050905600a165627a7a72305820176f04ce1b045224869ac7146c3ea48779eafb33049b194800aa360c81c62e7a0029",
  "source": "pragma solidity ^0.4.14;\n\nimport \"./Curve.sol\";\n\n// https://eprint.iacr.org/2004/027.pdf\nlibrary UAOSRing\n{\n\tusing Curve for Curve.G1Point;\n\tfunction RingLink( Curve.G1Point Y, Curve.G1Point M, Curve.G1Point tagpoint, uint256 s, uint256 c )\n\t\tinternal constant\n\t\treturns (uint256)\n\t{\n\t\tvar a = Curve.g1add(Curve.g1mul(Curve.P1(), s), Curve.g1mul(Y, c));\n\t\tvar b = Curve.g1add(Curve.g1mul(M, s), Curve.g1mul(tagpoint, c));\n\n\t\treturn uint256(keccak256(\n\t\t\ttagpoint.X, tagpoint.Y,\n\t\t\ta.X, a.Y,\n\t\t\tb.X, b.Y\n\t\t));\n\t}\n\n\tfunction verify( uint256[20] pubkeys, uint256[2] tag, uint256[10] tees, uint256 seed, uint256 message )\n\t\tpublic constant\n\t\treturns (bool)\n\t{\n\t\trequire( pubkeys.length % 2 == 0 );\n\t\trequire( pubkeys.length > 0 );\n\n\t\tvar M = Curve.HashToPoint(message);\n\t\tvar h = uint256(keccak256(M.X, M.Y, tag[0], tag[1]));\n\t\tvar tagpoint = Curve.G1Point(tag[0], tag[1]);\n\n\t\tuint256 c = seed;\n\t\tfor( uint256 i = 0; i < (pubkeys.length / 2); i++ )\n\t\t{\n\t\t\tuint256 j = i * 2;\n\t\t\tc = uint256(keccak256(\n\t\t\t\t\th,\n\t\t\t\t\tRingLink(\n\t\t\t\t\t\tCurve.G1Point(pubkeys[j], pubkeys[j+1]),\n\t\t\t\t\t\tM,\n\t\t\t\t\t\ttagpoint,\n\t\t\t\t\t\ttees[i],\n\t\t\t\t\t\tc\n\t\t\t\t\t)));\n\t\t}\n\t\treturn c == seed;\n\t}\n}",
  "sourcePath": "/Users/jimmychen/Workspace/fern-anonymous-identity-registry-poc/truffle/contracts/UAOSRing.sol",
  "compiler": {
    "name": "solc",
    "version": "0.4.24+commit.e67f0147.Emscripten.clang"
  },
  "schemaVersion": "2.0.1",
  "updatedAt": "2018-09-28T09:59:22.438Z"
}